{
  "abi": [
    {
      "inputs": [
        {
          "internalType": "address",
          "name": "config",
          "type": "address"
        },
        {
          "internalType": "address",
          "name": "endpoint",
          "type": "address"
        }
      ],
      "stateMutability": "nonpayable",
      "type": "constructor"
    },
    {
      "anonymous": false,
      "inputs": [
        {
          "indexed": true,
          "internalType": "bytes32",
          "name": "msgHash",
          "type": "bytes32"
        },
        {
          "indexed": false,
          "internalType": "bytes32",
          "name": "root",
          "type": "bytes32"
        },
        {
          "components": [
            {
              "internalType": "address",
              "name": "channel",
              "type": "address"
            },
            {
              "internalType": "uint256",
              "name": "index",
              "type": "uint256"
            },
            {
              "internalType": "uint256",
              "name": "fromChainId",
              "type": "uint256"
            },
            {
              "internalType": "address",
              "name": "from",
              "type": "address"
            },
            {
              "internalType": "uint256",
              "name": "toChainId",
              "type": "uint256"
            },
            {
              "internalType": "address",
              "name": "to",
              "type": "address"
            },
            {
              "internalType": "bytes",
              "name": "encoded",
              "type": "bytes"
            }
          ],
          "indexed": false,
          "internalType": "struct Message",
          "name": "message",
          "type": "tuple"
        }
      ],
      "name": "MessageAccepted",
      "type": "event"
    },
    {
      "anonymous": false,
      "inputs": [
        {
          "indexed": true,
          "internalType": "bytes32",
          "name": "msgHash",
          "type": "bytes32"
        },
        {
          "indexed": false,
          "internalType": "bool",
          "name": "dispatchResult",
          "type": "bool"
        }
      ],
      "name": "MessageDispatched",
      "type": "event"
    },
    {
      "inputs": [],
      "name": "CONFIG",
      "outputs": [
        {
          "internalType": "address",
          "name": "",
          "type": "address"
        }
      ],
      "stateMutability": "view",
      "type": "function"
    },
    {
      "inputs": [],
      "name": "ENDPOINT",
      "outputs": [
        {
          "internalType": "address",
          "name": "",
          "type": "address"
        }
      ],
      "stateMutability": "view",
      "type": "function"
    },
    {
      "inputs": [],
      "name": "LOCAL_CHAINID",
      "outputs": [
        {
          "internalType": "uint256",
          "name": "chainId",
          "type": "uint256"
        }
      ],
      "stateMutability": "view",
      "type": "function"
    },
    {
      "inputs": [
        {
          "internalType": "bytes32",
          "name": "",
          "type": "bytes32"
        }
      ],
      "name": "dones",
      "outputs": [
        {
          "internalType": "bool",
          "name": "",
          "type": "bool"
        }
      ],
      "stateMutability": "view",
      "type": "function"
    },
    {
      "inputs": [],
      "name": "imtBranch",
      "outputs": [
        {
          "internalType": "bytes32[32]",
          "name": "",
          "type": "bytes32[32]"
        }
      ],
      "stateMutability": "view",
      "type": "function"
    },
    {
      "inputs": [],
      "name": "messageCount",
      "outputs": [
        {
          "internalType": "uint256",
          "name": "",
          "type": "uint256"
        }
      ],
      "stateMutability": "view",
      "type": "function"
    },
    {
      "inputs": [
        {
          "components": [
            {
              "internalType": "address",
              "name": "channel",
              "type": "address"
            },
            {
              "internalType": "uint256",
              "name": "index",
              "type": "uint256"
            },
            {
              "internalType": "uint256",
              "name": "fromChainId",
              "type": "uint256"
            },
            {
              "internalType": "address",
              "name": "from",
              "type": "address"
            },
            {
              "internalType": "uint256",
              "name": "toChainId",
              "type": "uint256"
            },
            {
              "internalType": "address",
              "name": "to",
              "type": "address"
            },
            {
              "internalType": "bytes",
              "name": "encoded",
              "type": "bytes"
            }
          ],
          "internalType": "struct Message",
          "name": "message",
          "type": "tuple"
        },
        {
          "internalType": "bytes",
          "name": "proof",
          "type": "bytes"
        },
        {
          "internalType": "uint256",
          "name": "gasLimit",
          "type": "uint256"
        }
      ],
      "name": "recvMessage",
      "outputs": [],
      "stateMutability": "nonpayable",
      "type": "function"
    },
    {
      "inputs": [],
      "name": "root",
      "outputs": [
        {
          "internalType": "bytes32",
          "name": "",
          "type": "bytes32"
        }
      ],
      "stateMutability": "view",
      "type": "function"
    },
    {
      "inputs": [
        {
          "internalType": "address",
          "name": "from",
          "type": "address"
        },
        {
          "internalType": "uint256",
          "name": "toChainId",
          "type": "uint256"
        },
        {
          "internalType": "address",
          "name": "to",
          "type": "address"
        },
        {
          "internalType": "bytes",
          "name": "encoded",
          "type": "bytes"
        }
      ],
      "name": "sendMessage",
      "outputs": [
        {
          "internalType": "bytes32",
          "name": "",
          "type": "bytes32"
        }
      ],
      "stateMutability": "nonpayable",
      "type": "function"
    }
  ],
  "address": "0x17B2FBd6192501465f918eFDf89E1100d0f75AfD",
  "args": [
    "0x648662879D09CFD2F64fA7Bd97358DC42106b28D",
    "0xffF8530727061821d99858Bde3CB6aEd5aae381E"
  ],
  "bytecode": "0x60e06040523060c0523480156200001557600080fd5b5060405162001a0638038062001a06833981016040819052620000389162000091565b7f27ae5ba08d7291c96c8cbddcc148bf48a6d68c7974b94356f53754ef6171d7576000556001600160a01b0391821660a05216608052620000c9565b80516001600160a01b03811681146200008c57600080fd5b919050565b60008060408385031215620000a557600080fd5b620000b08362000074565b9150620000c06020840162000074565b90509250929050565b60805160a05160c0516118f96200010d6000396000610797015260008181610153015261020601526000818160d9015281816105b0015261068b01526118f96000f3fe608060405234801561001057600080fd5b50600436106100a35760003560e01c80639d2ec12911610076578063d92e82e41161005b578063d92e82e41461014e578063ebf0c71714610175578063f67c907c1461017e57600080fd5b80639d2ec12914610135578063b0ff5e721461014857600080fd5b80633dbcc8d1146100a857806352720be4146100bf5780636fad06f5146100d45780639622d8d114610120575b600080fd5b6021545b6040519081526020015b60405180910390f35b6100c76101b1565b6040516100b6919061100a565b6100fb7f000000000000000000000000000000000000000000000000000000000000000081565b60405173ffffffffffffffffffffffffffffffffffffffff90911681526020016100b6565b61013361012e366004611089565b6101ed565b005b6100ac610143366004611136565b610671565b466100ac565b6100fb7f000000000000000000000000000000000000000000000000000000000000000081565b6100ac60005481565b6101a161018c3660046111a9565b60226020526000908152604090205460ff1681565b60405190151581526020016100b6565b6101b9610feb565b604080516104008101918290529060019060209082845b8154815260200190600101908083116101d0575050505050905090565b600073ffffffffffffffffffffffffffffffffffffffff7f000000000000000000000000000000000000000000000000000000000000000016634134224961023b60c0880160a089016111c2565b6040517fffffffff0000000000000000000000000000000000000000000000000000000060e084901b16815273ffffffffffffffffffffffffffffffffffffffff90911660048201526024016040805180830381865afa1580156102a3573d6000803e3d6000fd5b505050506040513d601f19601f820116820180604052508101906102c7919061123e565b602081015190915073ffffffffffffffffffffffffffffffffffffffff163314610352576040517f08c379a000000000000000000000000000000000000000000000000000000000815260206004820152600560248201527f216175746800000000000000000000000000000000000000000000000000000060448201526064015b60405180910390fd5b600061036561036087611348565b6108cb565b9050816000015173ffffffffffffffffffffffffffffffffffffffff1663094f87c587604001358388886040518563ffffffff1660e01b81526004016103ae9493929190611428565b602060405180830381865afa1580156103cb573d6000803e3d6000fd5b505050506040513d601f19601f820116820180604052508101906103ef9190611452565b610455576040517f08c379a000000000000000000000000000000000000000000000000000000000815260206004820152600660248201527f2170726f6f6600000000000000000000000000000000000000000000000000006044820152606401610349565b608086013546146104c2576040517f08c379a000000000000000000000000000000000000000000000000000000000815260206004820152600a60248201527f21746f436861696e4964000000000000000000000000000000000000000000006044820152606401610349565b60008181526022602052604090205460ff161561053d576040517f08c379a00000000000000000000000000000000000000000000000000000000081526004016103499060208082526004908201527f646f6e6500000000000000000000000000000000000000000000000000000000604082015260600190565b60008181526022602052604080822080547fffffffffffffffffffffffffffffffffffffffffffffffffffffffffffffff00166001179055517f7c41faba00000000000000000000000000000000000000000000000000000000815273ffffffffffffffffffffffffffffffffffffffff7f00000000000000000000000000000000000000000000000000000000000000001690637c41faba906105e7908a9088906004016114d8565b6020604051808303816000875af1158015610606573d6000803e3d6000fd5b505050506040513d601f19601f8201168201806040525081019061062a9190611452565b9050817f62b1dc20fd6f1518626da5b6f9897e8cd4ebadbad071bb66dc96a37c970087a882604051610660911515815260200190565b60405180910390a250505050505050565b60003373ffffffffffffffffffffffffffffffffffffffff7f00000000000000000000000000000000000000000000000000000000000000001614610712576040517f08c379a000000000000000000000000000000000000000000000000000000000815260206004820152600960248201527f21656e64706f696e7400000000000000000000000000000000000000000000006044820152606401610349565b46850361077b576040517f08c379a000000000000000000000000000000000000000000000000000000000815260206004820152600c60248201527f2163726f73732d636861696e00000000000000000000000000000000000000006044820152606401610349565b600061078660215490565b905060006040518060e001604052807f000000000000000000000000000000000000000000000000000000000000000073ffffffffffffffffffffffffffffffffffffffff1681526020018381526020016107de4690565b81526020018973ffffffffffffffffffffffffffffffffffffffff1681526020018881526020018773ffffffffffffffffffffffffffffffffffffffff16815260200186868080601f0160208091040260200160405190810160405280939291908181526020018383808284376000920182905250939094525092935091506108689050826108cb565b90506108756001826108fb565b61087f6001610a3f565b600081905560405182917fa047cf3271a6e55d76e7706ca90d011a4f2f641f7c46dfd31f6abe4cd94db53f916108b791908690611666565b60405180910390a298975050505050505050565b6000816040516020016108de9190611687565b604051602081830303815290604052805190602001209050919050565b6001610909602060026117e9565b61091391906117f5565b82602001541061097f576040517f08c379a000000000000000000000000000000000000000000000000000000000815260206004820152601060248201527f6d65726b6c6520747265652066756c6c000000000000000000000000000000006044820152606401610349565b60018260200160008282546109949190611808565b9091555050602082015460005b6020811015610a3157816001166001036109d057828482602081106109c8576109c861181b565b015550505050565b8381602081106109e2576109e261181b565b01546040805160208101929092528101849052606001604051602081830303815290604052805190602001209250600282610a1d919061184a565b915080610a2981611885565b9150506109a1565b50610a3a6118bd565b505050565b6000610a5282610a4d610a58565b610f19565b92915050565b610a60610feb565b600081527fad3228b676f7d3cd4284a5443f17f1962b36e491b30a40b2405849e597ba5fb560208201527fb4c11951957c6f8f642c4af61cd6b24640fec6dc7fc607ee8206a99e92410d3060408201527f21ddb9a356815c3fac1026b6dec5df3124afbadb485c9ba5a3e3398a04b7ba8560608201527fe58769b32a1beaf1ea27375a44095a0d1fb664ce2dd358e7fcbfb78c26a1934460808201527f0eb01ebfc9ed27500cd4dfc979272d1f0913cc9f66540d7e8005811109e1cf2d60a08201527f887c22bd8750d34016ac3c66b5ff102dacdd73f6b014e710b51e8022af9a196860c08201527fffd70157e48063fc33c97a050f7f640233bf646cc98d9524c6b92bcf3ab56f8360e08201527f9867cc5f7f196b93bae1e27e6320742445d290f2263827498b54fec539f756af6101008201527fcefad4e508c098b9a7e1d8feb19955fb02ba9675585078710969d3440f5054e06101208201527ff9dc3e7fe016e050eff260334f18a5d4fe391d82092319f5964f2e2eb7c1c3a56101408201527ff8b13a49e282f609c317a833fb8d976d11517c571d1221a265d25af778ecf8926101608201527f3490c6ceeb450aecdc82e28293031d10c7d73bf85e57bf041a97360aa2c5d99c6101808201527fc1df82d9c4b87413eae2ef048f94b4d3554cea73d92b0f7af96e0271c691e2bb6101a08201527f5c67add7c6caf302256adedf7ab114da0acfe870d449a3a489f781d659e8becc6101c08201527fda7bce9f4e8618b6bd2f4132ce798cdc7a60e7e1460a7299e3c6342a579626d26101e08201527f2733e50f526ec2fa19a22b31e8ed50f23cd1fdf94c9154ed3a7609a2f1ff981f6102008201527fe1d3b5c807b281e4683cc6d6315cf95b9ade8641defcb32372f1c126e398ef7a6102208201527f5a2dce0a8a7f68bb74560f8f71837c2c2ebbcbf7fffb42ae1896f13f7c7479a06102408201527fb46a28b6f55540f89444f63de0378e3d121be09e06cc9ded1c20e65876d36aa06102608201527fc65e9645644786b620e2dd2ad648ddfcbf4a7e5b1a3a4ecfe7f64667a3f0b7e26102808201527ff4418588ed35a2458cffeb39b93d26f18d2ab13bdce6aee58e7b99359ec2dfd96102a08201527f5a9c16dc00d6ef18b7933a6f8dc65ccb55667138776f7dea101070dc8796e3776102c08201527f4df84f40ae0c8229d0d6069e5c8f39a7c299677a09d367fc7b05e3bc380ee6526102e08201527fcdc72595f74c7b1043d0e1ffbab734648c838dfb0527d971b602bc216c9619ef6103008201527f0abf5ac974a1ed57f4050aa510dd9c74f508277b39d7973bb2dfccc5eeb0618d6103208201527fb8cd74046ff337f0a7bf2c8e03e10f642c1886798d71806ab1e888d9e5ee87d06103408201527f838c5655cb21c6cb83313b5a631175dff4963772cce9108188b34ac87c81c41e6103608201527f662ee4dd2dd7b2bc707961b1e646c4047669dcb6584f0d8d770daf5d7e7deb2e6103808201527f388ab20e2573d171a88108e79d820e98f26c0b84aa8b2f4aa4968dbb818ea3226103a08201527f93237c50ba75ee485f4c22adf2f741400bdf8d6a9cc7df7ecae576221665d7356103c08201527f8448818bb4ae4562849e949e17ac16e0be16688e156b5cf15e098c627c0056a96103e082015290565b6020820154600090815b6020811015610fe357600182821c166000868360208110610f4657610f4661181b565b0154905081600103610f83576040805160208101839052908101869052606001604051602081830303815290604052805190602001209450610fce565b84868460208110610f9657610f9661181b565b6020020151604051602001610fb5929190918252602082015260400190565b6040516020818303038152906040528051906020012094505b50508080610fdb90611885565b915050610f23565b505092915050565b6040518061040001604052806020906020820280368337509192915050565b6104008101818360005b60208082106110235750611037565b825184529283019290910190600101611014565b50505092915050565b60008083601f84011261105257600080fd5b50813567ffffffffffffffff81111561106a57600080fd5b60208301915083602082850101111561108257600080fd5b9250929050565b6000806000806060858703121561109f57600080fd5b843567ffffffffffffffff808211156110b757600080fd5b9086019060e082890312156110cb57600080fd5b909450602086013590808211156110e157600080fd5b506110ee87828801611040565b9598909750949560400135949350505050565b73ffffffffffffffffffffffffffffffffffffffff8116811461112357600080fd5b50565b803561113181611101565b919050565b60008060008060006080868803121561114e57600080fd5b853561115981611101565b945060208601359350604086013561117081611101565b9250606086013567ffffffffffffffff81111561118c57600080fd5b61119888828901611040565b969995985093965092949392505050565b6000602082840312156111bb57600080fd5b5035919050565b6000602082840312156111d457600080fd5b81356111df81611101565b9392505050565b7f4e487b7100000000000000000000000000000000000000000000000000000000600052604160045260246000fd5b60405160e0810167ffffffffffffffff81118282101715611238576112386111e6565b60405290565b60006040828403121561125057600080fd5b6040516040810181811067ffffffffffffffff82111715611273576112736111e6565b604052825161128181611101565b8152602083015161129181611101565b60208201529392505050565b600082601f8301126112ae57600080fd5b813567ffffffffffffffff808211156112c9576112c96111e6565b604051601f83017fffffffffffffffffffffffffffffffffffffffffffffffffffffffffffffffe0908116603f0116810190828211818310171561130f5761130f6111e6565b8160405283815286602085880101111561132857600080fd5b836020870160208301376000602085830101528094505050505092915050565b600060e0823603121561135a57600080fd5b611362611215565b61136b83611126565b8152602083013560208201526040830135604082015261138d60608401611126565b6060820152608083013560808201526113a860a08401611126565b60a082015260c083013567ffffffffffffffff8111156113c757600080fd5b6113d33682860161129d565b60c08301525092915050565b8183528181602085013750600060208284010152600060207fffffffffffffffffffffffffffffffffffffffffffffffffffffffffffffffe0601f840116840101905092915050565b8481528360208201526060604082015260006114486060830184866113df565b9695505050505050565b60006020828403121561146457600080fd5b815180151581146111df57600080fd5b60008083357fffffffffffffffffffffffffffffffffffffffffffffffffffffffffffffffe18436030181126114a957600080fd5b830160208101925035905067ffffffffffffffff8111156114c957600080fd5b80360382131561108257600080fd5b60408152600083356114e981611101565b73ffffffffffffffffffffffffffffffffffffffff808216604085015260208601356060850152604086013560808501526060860135915061152a82611101565b80821660a08501525050608084013560c083015261154a60a08501611126565b73ffffffffffffffffffffffffffffffffffffffff1660e083015261157260c0850185611474565b60e0610100850152611589610120850182846113df565b925050508260208301529392505050565b600073ffffffffffffffffffffffffffffffffffffffff8083511684526020808401518186015260408401516040860152816060850151166060860152608084015160808601528160a08501511660a086015260c0840151915060e060c086015281518060e087015260005b818110156116235783810183015187820161010001528201611606565b5061010092506000838288010152827fffffffffffffffffffffffffffffffffffffffffffffffffffffffffffffffe0601f830116870101935050505092915050565b82815260406020820152600061167f604083018461159a565b949350505050565b6020815260006111df602083018461159a565b7f4e487b7100000000000000000000000000000000000000000000000000000000600052601160045260246000fd5b600181815b8085111561172257817fffffffffffffffffffffffffffffffffffffffffffffffffffffffffffffffff048211156117085761170861169a565b8085161561171557918102915b93841c93908002906116ce565b509250929050565b60008261173957506001610a52565b8161174657506000610a52565b816001811461175c576002811461176657611782565b6001915050610a52565b60ff8411156117775761177761169a565b50506001821b610a52565b5060208310610133831016604e8410600b84101617156117a5575081810a610a52565b6117af83836116c9565b807fffffffffffffffffffffffffffffffffffffffffffffffffffffffffffffffff048211156117e1576117e161169a565b029392505050565b60006111df838361172a565b81810381811115610a5257610a5261169a565b80820180821115610a5257610a5261169a565b7f4e487b7100000000000000000000000000000000000000000000000000000000600052603260045260246000fd5b600082611880577f4e487b7100000000000000000000000000000000000000000000000000000000600052601260045260246000fd5b500490565b60007fffffffffffffffffffffffffffffffffffffffffffffffffffffffffffffffff82036118b6576118b661169a565b5060010190565b7f4e487b7100000000000000000000000000000000000000000000000000000000600052600160045260246000fdfea164736f6c6343000811000a",
  "devdoc": {
    "version": 1,
    "kind": "dev",
    "details": "Messages live in an incremental merkle tree (imt) > A Merkle tree is a binary and complete tree decorated with > the Merkle (hash) attribute.",
    "methods": {
      "LOCAL_CHAINID()": {
        "details": "Fetch local chain id.",
        "returns": {
          "chainId": "Local chain id."
        }
      },
      "constructor": {
        "details": "Init code.",
        "params": {
          "config": "User config immutable address.",
          "endpoint": "Endpoint immutable address."
        }
      },
      "imtBranch()": {
        "details": "Fetch the branch of incremental merkle tree."
      },
      "messageCount()": {
        "details": "Fetch the messages count of incremental merkle tree."
      },
      "recvMessage((address,uint256,uint256,address,uint256,address,bytes),bytes,uint256)": {
        "details": "Receive messages.",
        "params": {
          "gasLimit": "The gas limit of message execute.",
          "message": "Received message info.",
          "proof": "Message proof of this message."
        }
      },
      "sendMessage(address,uint256,address,bytes)": {
        "details": "Send message.",
        "params": {
          "encoded": "The calldata which encoded by ABI Encoding.",
          "from": "User application contract address which send the message.",
          "to": "User application contract address which receive the message.",
          "toChainId": "The Message destination chain id."
        }
      }
    },
    "events": {
      "MessageAccepted(bytes32,bytes32,(address,uint256,uint256,address,uint256,address,bytes))": {
        "details": "Notifies an observer that the message has been accepted.",
        "params": {
          "message": "Accepted message info.",
          "msgHash": "Hash of the message.",
          "root": "New incremental merkle tree root after a new message inserted."
        }
      },
      "MessageDispatched(bytes32,bool)": {
        "details": "Notifies an observer that the message has been dispatched.",
        "params": {
          "dispatchResult": "The message dispatch result.",
          "msgHash": "Hash of the message."
        }
      }
    },
    "title": "Channel"
  },
  "numDeployments": 3,
  "solcInputHash": "0x0000000000000000000000000000000000000000000000000000000000000000",
  "storageLayout": {
    "storage": [
      {
        "astId": 46739,
        "contract": "src/Channel.sol:Channel",
        "label": "root",
        "offset": 0,
        "slot": "0",
        "type": "t_bytes32"
      },
      {
        "astId": 46743,
        "contract": "src/Channel.sol:Channel",
        "label": "imt",
        "offset": 0,
        "slot": "1",
        "type": "t_struct(Tree)48396_storage"
      },
      {
        "astId": 46748,
        "contract": "src/Channel.sol:Channel",
        "label": "dones",
        "offset": 0,
        "slot": "34",
        "type": "t_mapping(t_bytes32,t_bool)"
      }
    ],
    "types": {
      "t_array(t_bytes32)32_storage": {
        "encoding": "inplace",
        "label": "bytes32[32]",
        "numberOfBytes": "1024",
        "base": "t_bytes32"
      },
      "t_bool": {
        "encoding": "inplace",
        "label": "bool",
        "numberOfBytes": "1"
      },
      "t_bytes32": {
        "encoding": "inplace",
        "label": "bytes32",
        "numberOfBytes": "32"
      },
      "t_mapping(t_bytes32,t_bool)": {
        "encoding": "mapping",
        "key": "t_bytes32",
        "label": "mapping(bytes32 => bool)",
        "numberOfBytes": "32",
        "value": "t_bool"
      },
      "t_struct(Tree)48396_storage": {
        "encoding": "inplace",
        "label": "struct IncrementalMerkleTree.Tree",
        "numberOfBytes": "1056",
        "members": [
          {
            "astId": 48393,
            "contract": "src/Channel.sol:Channel",
            "label": "branch",
            "offset": 0,
            "slot": "0",
            "type": "t_array(t_bytes32)32_storage"
          },
          {
            "astId": 48395,
            "contract": "src/Channel.sol:Channel",
            "label": "count",
            "offset": 0,
            "slot": "32",
            "type": "t_uint256"
          }
        ]
      },
      "t_uint256": {
        "encoding": "inplace",
        "label": "uint256",
        "numberOfBytes": "32"
      }
    }
  },
  "transactionHash": "0x306422e2105cb273ae1ac1b2410a5fdc0d0cce2aaf6cc319745be1e322b6ea00",
  "userdoc": {
    "version": 1,
    "kind": "user",
    "methods": {
      "recvMessage((address,uint256,uint256,address,uint256,address,bytes),bytes,uint256)": {
        "notice": "Only message.to's config relayer could relayer this message."
      },
      "sendMessage(address,uint256,address,bytes)": {
        "notice": "Only endpoint could call this function."
      }
    },
    "notice": "A channel is a logical connection over cross-chain network. It used for cross-chain message transfer. - Accepts messages to be dispatched to remote chains,   constructs a Merkle tree of the messages. - Dispatches verified messages from source chains."
  }
}