{
  "abi": [
    {
      "inputs": [
        {
          "internalType": "address",
          "name": "config",
          "type": "address"
        },
        {
          "internalType": "address",
          "name": "channel",
          "type": "address"
        }
      ],
      "stateMutability": "nonpayable",
      "type": "constructor"
    },
    {
      "anonymous": false,
      "inputs": [
        {
          "indexed": true,
          "internalType": "bytes32",
          "name": "msgHash",
          "type": "bytes32"
        }
      ],
      "name": "ClearFailedMessage",
      "type": "event"
    },
    {
      "anonymous": false,
      "inputs": [
        {
          "indexed": true,
          "internalType": "bytes32",
          "name": "msgHash",
          "type": "bytes32"
        },
        {
          "indexed": false,
          "internalType": "bool",
          "name": "dispatchResult",
          "type": "bool"
        }
      ],
      "name": "RetryFailedMessage",
      "type": "event"
    },
    {
      "inputs": [],
      "name": "CHANNEL",
      "outputs": [
        {
          "internalType": "address",
          "name": "",
          "type": "address"
        }
      ],
      "stateMutability": "view",
      "type": "function"
    },
    {
      "inputs": [],
      "name": "CONFIG",
      "outputs": [
        {
          "internalType": "address",
          "name": "",
          "type": "address"
        }
      ],
      "stateMutability": "view",
      "type": "function"
    },
    {
      "inputs": [
        {
          "components": [
            {
              "internalType": "address",
              "name": "channel",
              "type": "address"
            },
            {
              "internalType": "uint256",
              "name": "index",
              "type": "uint256"
            },
            {
              "internalType": "uint256",
              "name": "fromChainId",
              "type": "uint256"
            },
            {
              "internalType": "address",
              "name": "from",
              "type": "address"
            },
            {
              "internalType": "uint256",
              "name": "toChainId",
              "type": "uint256"
            },
            {
              "internalType": "address",
              "name": "to",
              "type": "address"
            },
            {
              "internalType": "bytes",
              "name": "encoded",
              "type": "bytes"
            }
          ],
          "internalType": "struct Message",
          "name": "message",
          "type": "tuple"
        }
      ],
      "name": "clearFailedMessage",
      "outputs": [],
      "stateMutability": "nonpayable",
      "type": "function"
    },
    {
      "inputs": [
        {
          "internalType": "bytes32",
          "name": "",
          "type": "bytes32"
        }
      ],
      "name": "fails",
      "outputs": [
        {
          "internalType": "bool",
          "name": "",
          "type": "bool"
        }
      ],
      "stateMutability": "view",
      "type": "function"
    },
    {
      "inputs": [
        {
          "internalType": "uint256",
          "name": "toChainId",
          "type": "uint256"
        },
        {
          "internalType": "address",
          "name": "",
          "type": "address"
        },
        {
          "internalType": "bytes",
          "name": "encoded",
          "type": "bytes"
        },
        {
          "internalType": "bytes",
          "name": "params",
          "type": "bytes"
        }
      ],
      "name": "fee",
      "outputs": [
        {
          "internalType": "uint256",
          "name": "",
          "type": "uint256"
        }
      ],
      "stateMutability": "view",
      "type": "function"
    },
    {
      "inputs": [
        {
          "components": [
            {
              "internalType": "address",
              "name": "channel",
              "type": "address"
            },
            {
              "internalType": "uint256",
              "name": "index",
              "type": "uint256"
            },
            {
              "internalType": "uint256",
              "name": "fromChainId",
              "type": "uint256"
            },
            {
              "internalType": "address",
              "name": "from",
              "type": "address"
            },
            {
              "internalType": "uint256",
              "name": "toChainId",
              "type": "uint256"
            },
            {
              "internalType": "address",
              "name": "to",
              "type": "address"
            },
            {
              "internalType": "bytes",
              "name": "encoded",
              "type": "bytes"
            }
          ],
          "internalType": "struct Message",
          "name": "message",
          "type": "tuple"
        },
        {
          "internalType": "uint256",
          "name": "gasLimit",
          "type": "uint256"
        }
      ],
      "name": "recv",
      "outputs": [
        {
          "internalType": "bool",
          "name": "dispatchResult",
          "type": "bool"
        }
      ],
      "stateMutability": "nonpayable",
      "type": "function"
    },
    {
      "inputs": [
        {
          "components": [
            {
              "internalType": "address",
              "name": "channel",
              "type": "address"
            },
            {
              "internalType": "uint256",
              "name": "index",
              "type": "uint256"
            },
            {
              "internalType": "uint256",
              "name": "fromChainId",
              "type": "uint256"
            },
            {
              "internalType": "address",
              "name": "from",
              "type": "address"
            },
            {
              "internalType": "uint256",
              "name": "toChainId",
              "type": "uint256"
            },
            {
              "internalType": "address",
              "name": "to",
              "type": "address"
            },
            {
              "internalType": "bytes",
              "name": "encoded",
              "type": "bytes"
            }
          ],
          "internalType": "struct Message",
          "name": "message",
          "type": "tuple"
        }
      ],
      "name": "retryFailedMessage",
      "outputs": [
        {
          "internalType": "bool",
          "name": "dispatchResult",
          "type": "bool"
        }
      ],
      "stateMutability": "nonpayable",
      "type": "function"
    },
    {
      "inputs": [
        {
          "internalType": "uint256",
          "name": "toChainId",
          "type": "uint256"
        },
        {
          "internalType": "address",
          "name": "to",
          "type": "address"
        },
        {
          "internalType": "bytes",
          "name": "encoded",
          "type": "bytes"
        },
        {
          "internalType": "bytes",
          "name": "params",
          "type": "bytes"
        }
      ],
      "name": "send",
      "outputs": [
        {
          "internalType": "bytes32",
          "name": "",
          "type": "bytes32"
        }
      ],
      "stateMutability": "payable",
      "type": "function"
    }
  ],
  "address": "0x634370aCf53cf55ad270E084442ea7A23B43B26a",
  "args": [
    "0x36EA9173f481daD6227ddd126962C2856e394119",
    "0x368E31361CF9a3bCd254Aa4A4D67A22f9AcCcE28"
  ],
  "bytecode": "0x60c06040526000805461ffff191661010117905534801561001f57600080fd5b50604051620017833803806200178383398101604081905261004091610073565b6001600160a01b039182166080521660a0526100a6565b80516001600160a01b038116811461006e57600080fd5b919050565b6000806040838503121561008657600080fd5b61008f83610057565b915061009d60208401610057565b90509250929050565b60805160a05161169b620000e8600039600081816101080152818161034c0152610b7a0152600081816101d3015281816102dc0152610778015261169b6000f3fe60806040526004361061007b5760003560e01c80635f2a8d111161004e5780635f2a8d111461014f5780636b47ec2c1461017f5780637c41faba146101a1578063d92e82e4146101c157600080fd5b806316fe55ae14610080578063360dfcad146100a65780633eac4370146100d6578063475163ee146100f6575b600080fd5b61009361008e36600461109c565b6101f5565b6040519081526020015b60405180910390f35b3480156100b257600080fd5b506100c66100c1366004611140565b610550565b604051901515815260200161009d565b3480156100e257600080fd5b506100936100f136600461109c565b610743565b34801561010257600080fd5b5061012a7f000000000000000000000000000000000000000000000000000000000000000081565b60405173ffffffffffffffffffffffffffffffffffffffff909116815260200161009d565b34801561015b57600080fd5b506100c661016a36600461117d565b60016020526000908152604090205460ff1681565b34801561018b57600080fd5b5061019f61019a366004611140565b610959565b005b3480156101ad57600080fd5b506100c66101bc366004611196565b610ad7565b3480156101cd57600080fd5b5061012a7f000000000000000000000000000000000000000000000000000000000000000081565b6000805460ff1660011461026a576040517f08c379a000000000000000000000000000000000000000000000000000000000815260206004820152601060248201527f2173656e642d7265656e7472616e63790000000000000000000000000000000060448201526064015b60405180910390fd5b600080547fffffffffffffffffffffffffffffffffffffffffffffffffffffffffffffff001660021781556040517f413422490000000000000000000000000000000000000000000000000000000081523360048201819052919073ffffffffffffffffffffffffffffffffffffffff7f000000000000000000000000000000000000000000000000000000000000000016906341342249906024016040805180830381865afa158015610322573d6000803e3d6000fd5b505050506040513d601f19601f820116820180604052508101906103469190611233565b905060007f000000000000000000000000000000000000000000000000000000000000000073ffffffffffffffffffffffffffffffffffffffff16639d2ec129848c8c8c8c6040518663ffffffff1660e01b81526004016103ab9594939291906112db565b6020604051808303816000875af11580156103ca573d6000803e3d6000fd5b505050506040513d601f19601f820116820180604052508101906103ee9190611326565b905060006104088360200151838d878d8d90508c8c610caf565b9050600061041c8460000151848e88610db3565b9050610428818361136e565b34111561051457600061043b828461136e565b6104459034611387565b905060008673ffffffffffffffffffffffffffffffffffffffff168260405160006040518083038185875af1925050503d80600081146104a1576040519150601f19603f3d011682016040523d82523d6000602084013e6104a6565b606091505b5050905080610511576040517f08c379a000000000000000000000000000000000000000000000000000000000815260206004820152600760248201527f21726566756e64000000000000000000000000000000000000000000000000006044820152606401610261565b50505b50909350505050600080547fffffffffffffffffffffffffffffffffffffffffffffffffffffffffffffff001660011790559695505050505050565b60008054610100900460ff166001146105c5576040517f08c379a000000000000000000000000000000000000000000000000000000000815260206004820152601060248201527f21726563762d7265656e7472616e6379000000000000000000000000000000006044820152606401610261565b600080547fffffffffffffffffffffffffffffffffffffffffffffffffffffffffffff00ff166102001781556106026105fd84611445565b610ede565b60008181526001602081905260409091205491925060ff909116151514610685576040517f08c379a000000000000000000000000000000000000000000000000000000000815260206004820152600760248201527f216661696c6564000000000000000000000000000000000000000000000000006044820152606401610261565b61069861069184611445565b825a610f0e565b915081156106d557600081815260016020526040902080547fffffffffffffffffffffffffffffffffffffffffffffffffffffffffffffff001690555b807f5d255928e69f40dbd88225e961b4487ef62684d9e0d70c69d41a126093fc4d5883604051610709911515815260200190565b60405180910390a250600080547fffffffffffffffffffffffffffffffffffffffffffffffffffffffffffff00ff16610100179055919050565b6040517f41342249000000000000000000000000000000000000000000000000000000008152336004820181905260009182907f000000000000000000000000000000000000000000000000000000000000000073ffffffffffffffffffffffffffffffffffffffff16906341342249906024016040805180830381865afa1580156107d3573d6000803e3d6000fd5b505050506040513d601f19601f820116820180604052508101906107f79190611233565b60208101516040517f53179a7c00000000000000000000000000000000000000000000000000000000815291925060009173ffffffffffffffffffffffffffffffffffffffff909116906353179a7c9061085d908d9087908c908c908c906004016114dc565b602060405180830381865afa15801561087a573d6000803e3d6000fd5b505050506040513d601f19601f8201168201806040525081019061089e9190611326565b82516040517fa1dbf432000000000000000000000000000000000000000000000000000000008152600481018d905273ffffffffffffffffffffffffffffffffffffffff86811660248301529293506000929091169063a1dbf43290604401602060405180830381865afa15801561091a573d6000803e3d6000fd5b505050506040513d601f19601f8201168201806040525081019061093e9190611326565b905061094a818361136e565b9b9a5050505050505050505050565b60006109676105fd83611445565b60008181526001602081905260409091205491925060ff9091161515146109ea576040517f08c379a000000000000000000000000000000000000000000000000000000000815260206004820152600760248201527f216661696c6564000000000000000000000000000000000000000000000000006044820152606401610261565b336109fb60c0840160a08501611518565b73ffffffffffffffffffffffffffffffffffffffff1614610a78576040517f08c379a000000000000000000000000000000000000000000000000000000000815260206004820152600560248201527f21617574680000000000000000000000000000000000000000000000000000006044820152606401610261565b60008181526001602052604080822080547fffffffffffffffffffffffffffffffffffffffffffffffffffffffffffffff001690555182917f29a8c889883df62405a5fa47e2ce1f49e66b7adaecd61e670de4faefcb47e9d491a25050565b60008054610100900460ff16600114610b4c576040517f08c379a000000000000000000000000000000000000000000000000000000000815260206004820152601060248201527f21726563762d7265656e7472616e6379000000000000000000000000000000006044820152606401610261565b600080547fffffffffffffffffffffffffffffffffffffffffffffffffffffffffffff00ff166102001790557f000000000000000000000000000000000000000000000000000000000000000073ffffffffffffffffffffffffffffffffffffffff163314610c17576040517f08c379a000000000000000000000000000000000000000000000000000000000815260206004820152600560248201527f21617574680000000000000000000000000000000000000000000000000000006044820152606401610261565b6000610c256105fd85611445565b9050610c3a610c3385611445565b8285610f0e565b915081610c7c57600081815260016020819052604090912080547fffffffffffffffffffffffffffffffffffffffffffffffffffffffffffffff001690911790555b50600080547fffffffffffffffffffffffffffffffffffffffffffffffffffffffffffff00ff1661010017905592915050565b6000808873ffffffffffffffffffffffffffffffffffffffff166353179a7c88888888886040518663ffffffff1660e01b8152600401610cf39594939291906114dc565b602060405180830381865afa158015610d10573d6000803e3d6000fd5b505050506040513d601f19601f82011682018060405250810190610d349190611326565b90508873ffffffffffffffffffffffffffffffffffffffff1663ca102812828a87876040518563ffffffff1660e01b8152600401610d749392919061153c565b6000604051808303818588803b158015610d8d57600080fd5b505af1158015610da1573d6000803e3d6000fd5b50939c9b505050505050505050505050565b6040517fa1dbf4320000000000000000000000000000000000000000000000000000000081526004810183905273ffffffffffffffffffffffffffffffffffffffff8281166024830152600091829187169063a1dbf43290604401602060405180830381865afa158015610e2b573d6000803e3d6000fd5b505050506040513d601f19601f82011682018060405250810190610e4f9190611326565b6040517f70b9f81d0000000000000000000000000000000000000000000000000000000081526004810187905290915073ffffffffffffffffffffffffffffffffffffffff8716906370b9f81d9083906024016000604051808303818588803b158015610ebb57600080fd5b505af1158015610ecf573d6000803e3d6000fd5b50939998505050505050505050565b600081604051602001610ef19190611583565b604051602081830303815290604052805190602001209050919050565b6000610f8a8260008660c001518688604001518960600151604051602001610f39949392919061163a565b604080517fffffffffffffffffffffffffffffffffffffffffffffffffffffffffffffffe081840301815291905260a088015173ffffffffffffffffffffffffffffffffffffffff16929190610f93565b50949350505050565b6000606060008060008661ffff1667ffffffffffffffff811115610fb957610fb96111db565b6040519080825280601f01601f191660200182016040528015610fe3576020820181803683370190505b50905060008087516020890160008d8df191503d925086831115611005578692505b828152826000602083013e909890975095505050505050565b73ffffffffffffffffffffffffffffffffffffffff8116811461104057600080fd5b50565b803561104e8161101e565b919050565b60008083601f84011261106557600080fd5b50813567ffffffffffffffff81111561107d57600080fd5b60208301915083602082850101111561109557600080fd5b9250929050565b600080600080600080608087890312156110b557600080fd5b8635955060208701356110c78161101e565b9450604087013567ffffffffffffffff808211156110e457600080fd5b6110f08a838b01611053565b9096509450606089013591508082111561110957600080fd5b5061111689828a01611053565b979a9699509497509295939492505050565b600060e0828403121561113a57600080fd5b50919050565b60006020828403121561115257600080fd5b813567ffffffffffffffff81111561116957600080fd5b61117584828501611128565b949350505050565b60006020828403121561118f57600080fd5b5035919050565b600080604083850312156111a957600080fd5b823567ffffffffffffffff8111156111c057600080fd5b6111cc85828601611128565b95602094909401359450505050565b7f4e487b7100000000000000000000000000000000000000000000000000000000600052604160045260246000fd5b60405160e0810167ffffffffffffffff8111828210171561122d5761122d6111db565b60405290565b60006040828403121561124557600080fd5b6040516040810181811067ffffffffffffffff82111715611268576112686111db565b60405282516112768161101e565b815260208301516112868161101e565b60208201529392505050565b8183528181602085013750600060208284010152600060207fffffffffffffffffffffffffffffffffffffffffffffffffffffffffffffffe0601f840116840101905092915050565b600073ffffffffffffffffffffffffffffffffffffffff80881683528660208401528086166040840152506080606083015261131b608083018486611292565b979650505050505050565b60006020828403121561133857600080fd5b5051919050565b7f4e487b7100000000000000000000000000000000000000000000000000000000600052601160045260246000fd5b808201808211156113815761138161133f565b92915050565b818103818111156113815761138161133f565b600082601f8301126113ab57600080fd5b813567ffffffffffffffff808211156113c6576113c66111db565b604051601f83017fffffffffffffffffffffffffffffffffffffffffffffffffffffffffffffffe0908116603f0116810190828211818310171561140c5761140c6111db565b8160405283815286602085880101111561142557600080fd5b836020870160208301376000602085830101528094505050505092915050565b600060e0823603121561145757600080fd5b61145f61120a565b61146883611043565b8152602083013560208201526040830135604082015261148a60608401611043565b6060820152608083013560808201526114a560a08401611043565b60a082015260c083013567ffffffffffffffff8111156114c457600080fd5b6114d03682860161139a565b60c08301525092915050565b85815273ffffffffffffffffffffffffffffffffffffffff8516602082015283604082015260806060820152600061131b608083018486611292565b60006020828403121561152a57600080fd5b81356115358161101e565b9392505050565b838152604060208201526000611556604083018486611292565b95945050505050565b60005b8381101561157a578181015183820152602001611562565b50506000910152565b60208152600073ffffffffffffffffffffffffffffffffffffffff8084511660208401526020840151604084015260408401516060840152806060850151166080840152608084015160a08401528060a08501511660c08401525060c083015160e080840152805180610100850152610120611605828287016020860161155f565b807fffffffffffffffffffffffffffffffffffffffffffffffffffffffffffffffe0601f840116860101935050505092915050565b6000855161164c818460208a0161155f565b9190910193845250602083019190915260601b7fffffffffffffffffffffffffffffffffffffffff00000000000000000000000016604082015260540191905056fea164736f6c6343000811000a",
  "devdoc": {
    "version": 1,
    "kind": "dev",
    "details": "An endpoint is associated with an immutable channel and user configuration.",
    "methods": {
      "clearFailedMessage((address,uint256,uint256,address,uint256,address,bytes))": {
        "details": "Retry failed message.",
        "params": {
          "message": "Failed message info."
        }
      },
      "constructor": {
        "details": "Init code.",
        "params": {
          "channel": "Channel immutable address.",
          "config": "User config immutable address."
        }
      },
      "fee(uint256,address,bytes,bytes)": {
        "params": {
          "encoded": "The calldata which encoded by ABI Encoding.",
          "params": "General extensibility for relayer to custom functionality."
        }
      },
      "recv((address,uint256,uint256,address,uint256,address,bytes),uint256)": {
        "details": "Recv verified message from Channel and dispatch to destination user application address.",
        "params": {
          "gasLimit": "The gas limit of message execute.",
          "message": "Verified receive message info."
        },
        "returns": {
          "dispatchResult": "Result of the message dispatch."
        }
      },
      "retryFailedMessage((address,uint256,uint256,address,uint256,address,bytes))": {
        "details": "Retry failed message.",
        "params": {
          "message": "Failed message info."
        },
        "returns": {
          "dispatchResult": "Result of the message dispatch."
        }
      },
      "send(uint256,address,bytes,bytes)": {
        "details": "Send a cross-chain message over the endpoint.",
        "params": {
          "encoded": "The calldata which encoded by ABI Encoding.",
          "params": "General extensibility for relayer to custom functionality.",
          "to": "User application contract address which receive the message.",
          "toChainId": "The Message destination chain id."
        }
      }
    },
    "events": {
      "ClearFailedMessage(bytes32)": {
        "details": "Notifies an observer that the failed message has been cleared.",
        "params": {
          "msgHash": "Hash of the message."
        }
      },
      "RetryFailedMessage(bytes32,bool)": {
        "details": "Notifies an observer that the failed message has been retried.",
        "params": {
          "dispatchResult": "Result of the message dispatch.",
          "msgHash": "Hash of the message."
        }
      }
    },
    "title": "Endpoint"
  },
  "numDeployments": 2,
  "solcInputHash": "0x0000000000000000000000000000000000000000000000000000000000000000",
  "storageLayout": {
    "storage": [
      {
        "astId": 49218,
        "contract": "src/Endpoint.sol:Endpoint",
        "label": "_send_state",
        "offset": 0,
        "slot": "0",
        "type": "t_uint8"
      },
      {
        "astId": 49221,
        "contract": "src/Endpoint.sol:Endpoint",
        "label": "_receive_state",
        "offset": 1,
        "slot": "0",
        "type": "t_uint8"
      },
      {
        "astId": 47034,
        "contract": "src/Endpoint.sol:Endpoint",
        "label": "fails",
        "offset": 0,
        "slot": "1",
        "type": "t_mapping(t_bytes32,t_bool)"
      }
    ],
    "types": {
      "t_bool": {
        "encoding": "inplace",
        "label": "bool",
        "numberOfBytes": "1"
      },
      "t_bytes32": {
        "encoding": "inplace",
        "label": "bytes32",
        "numberOfBytes": "32"
      },
      "t_mapping(t_bytes32,t_bool)": {
        "encoding": "mapping",
        "key": "t_bytes32",
        "label": "mapping(bytes32 => bool)",
        "numberOfBytes": "32",
        "value": "t_bool"
      },
      "t_uint8": {
        "encoding": "inplace",
        "label": "uint8",
        "numberOfBytes": "1"
      }
    }
  },
  "transactionHash": "0xe2a8efd4b73aa6d799bb22c683f55c9a105a2772b3e30c4b332a2a3929c962aa",
  "userdoc": {
    "version": 1,
    "kind": "user",
    "methods": {
      "clearFailedMessage((address,uint256,uint256,address,uint256,address,bytes))": {
        "notice": "Only message.to could clear this message."
      },
      "fails(bytes32)": {
        "notice": "msgHash => isFailed"
      },
      "recv((address,uint256,uint256,address,uint256,address,bytes),uint256)": {
        "notice": "Only channel could call this function."
      },
      "send(uint256,address,bytes,bytes)": {
        "notice": "follow https://eips.ethereum.org/EIPS/eip-5750"
      }
    },
    "notice": "An endpoint is a type of network node for cross-chain communication. It is an interface exposed by a communication channel."
  }
}