{
  "abi": [
    {
      "inputs": [],
      "stateMutability": "nonpayable",
      "type": "constructor"
    },
    {
      "anonymous": false,
      "inputs": [
        {
          "indexed": true,
          "internalType": "address",
          "name": "ua",
          "type": "address"
        },
        {
          "indexed": false,
          "internalType": "address",
          "name": "relayer",
          "type": "address"
        },
        {
          "indexed": false,
          "internalType": "address",
          "name": "oracle",
          "type": "address"
        }
      ],
      "name": "AppConfigUpdated",
      "type": "event"
    },
    {
      "anonymous": false,
      "inputs": [
        {
          "indexed": false,
          "internalType": "address",
          "name": "relayer",
          "type": "address"
        },
        {
          "indexed": false,
          "internalType": "address",
          "name": "oracle",
          "type": "address"
        }
      ],
      "name": "SetDefaultConfig",
      "type": "event"
    },
    {
      "inputs": [
        {
          "internalType": "address",
          "name": "",
          "type": "address"
        }
      ],
      "name": "appConfig",
      "outputs": [
        {
          "internalType": "address",
          "name": "relayer",
          "type": "address"
        },
        {
          "internalType": "address",
          "name": "oracle",
          "type": "address"
        }
      ],
      "stateMutability": "view",
      "type": "function"
    },
    {
      "inputs": [
        {
          "internalType": "address",
          "name": "setter_",
          "type": "address"
        }
      ],
      "name": "changeSetter",
      "outputs": [],
      "stateMutability": "nonpayable",
      "type": "function"
    },
    {
      "inputs": [],
      "name": "defaultConfig",
      "outputs": [
        {
          "internalType": "address",
          "name": "relayer",
          "type": "address"
        },
        {
          "internalType": "address",
          "name": "oracle",
          "type": "address"
        }
      ],
      "stateMutability": "view",
      "type": "function"
    },
    {
      "inputs": [
        {
          "internalType": "address",
          "name": "ua",
          "type": "address"
        }
      ],
      "name": "getAppConfig",
      "outputs": [
        {
          "components": [
            {
              "internalType": "address",
              "name": "relayer",
              "type": "address"
            },
            {
              "internalType": "address",
              "name": "oracle",
              "type": "address"
            }
          ],
          "internalType": "struct Config",
          "name": "",
          "type": "tuple"
        }
      ],
      "stateMutability": "view",
      "type": "function"
    },
    {
      "inputs": [
        {
          "internalType": "address",
          "name": "relayer",
          "type": "address"
        },
        {
          "internalType": "address",
          "name": "oracle",
          "type": "address"
        }
      ],
      "name": "setAppConfig",
      "outputs": [],
      "stateMutability": "nonpayable",
      "type": "function"
    },
    {
      "inputs": [
        {
          "internalType": "address",
          "name": "relayer",
          "type": "address"
        },
        {
          "internalType": "address",
          "name": "oracle",
          "type": "address"
        }
      ],
      "name": "setDefaultConfig",
      "outputs": [],
      "stateMutability": "nonpayable",
      "type": "function"
    },
    {
      "inputs": [],
      "name": "setter",
      "outputs": [
        {
          "internalType": "address",
          "name": "",
          "type": "address"
        }
      ],
      "stateMutability": "view",
      "type": "function"
    }
  ],
  "address": "0x2C5711df53c97Aa640452531EF2ff9DEb30a49F6",
  "args": [],
  "bytecode": "0x608060405234801561001057600080fd5b50600080546001600160a01b031916331790556105d3806100326000396000f3fe608060405234801561001057600080fd5b506004361061007d5760003560e01c8063413422491161005b578063413422491461014f5780634ea59979146101965780638b229091146101a95780639e09ed5f146101bc57600080fd5b80630f988a731461008257806315f66fb5146100975780633f3108f71461010a575b600080fd5b610095610090366004610571565b6101e3565b005b6100d86100a5366004610571565b6001602081905260009182526040909120805491015473ffffffffffffffffffffffffffffffffffffffff918216911682565b6040805173ffffffffffffffffffffffffffffffffffffffff9384168152929091166020830152015b60405180910390f35b60005461012a9073ffffffffffffffffffffffffffffffffffffffff1681565b60405173ffffffffffffffffffffffffffffffffffffffff9091168152602001610101565b61016261015d366004610571565b6102b0565b60408051825173ffffffffffffffffffffffffffffffffffffffff9081168252602093840151169281019290925201610101565b6100956101a4366004610593565b610367565b6100956101b7366004610593565b61048a565b6002546003546100d89173ffffffffffffffffffffffffffffffffffffffff908116911682565b60005473ffffffffffffffffffffffffffffffffffffffff163314610269576040517f08c379a000000000000000000000000000000000000000000000000000000000815260206004820152600560248201527f216175746800000000000000000000000000000000000000000000000000000060448201526064015b60405180910390fd5b600080547fffffffffffffffffffffffff00000000000000000000000000000000000000001673ffffffffffffffffffffffffffffffffffffffff92909216919091179055565b6040805180820182526000808252602080830182905273ffffffffffffffffffffffffffffffffffffffff858116835260018083529285902085518087019096528054821680875293015416908401529091906103235760025473ffffffffffffffffffffffffffffffffffffffff1681525b602081015173ffffffffffffffffffffffffffffffffffffffff166103615760035473ffffffffffffffffffffffffffffffffffffffff1660208201525b92915050565b60005473ffffffffffffffffffffffffffffffffffffffff1633146103e8576040517f08c379a000000000000000000000000000000000000000000000000000000000815260206004820152600560248201527f21617574680000000000000000000000000000000000000000000000000000006044820152606401610260565b60408051808201825273ffffffffffffffffffffffffffffffffffffffff8481168083529084166020928301819052600280547fffffffffffffffffffffffff0000000000000000000000000000000000000000908116841790915560038054909116821790558351918252918101919091527f5894d4a11817d288b65d33dd5894e71c8f692cb53b9cf67a3ebc53260ab412ef910160405180910390a15050565b60408051808201825273ffffffffffffffffffffffffffffffffffffffff8481168083528482166020808501828152336000818152600180855290899020975188549088167fffffffffffffffffffffffff000000000000000000000000000000000000000091821617895592519701805497909616969091169590951790935584519182529181019190915290917f86b44d92ad94c11b25d0f08d0f55e8e235b4d165e62e541c02e8ee19f551c97b910160405180910390a25050565b803573ffffffffffffffffffffffffffffffffffffffff8116811461056c57600080fd5b919050565b60006020828403121561058357600080fd5b61058c82610548565b9392505050565b600080604083850312156105a657600080fd5b6105af83610548565b91506105bd60208401610548565b9050925092905056fea164736f6c6343000811000a",
  "devdoc": {
    "version": 1,
    "kind": "dev",
    "details": "Only setter could set default config.",
    "methods": {
      "changeSetter(address)": {
        "details": "Change setter.",
        "params": {
          "setter_": "New setter."
        }
      },
      "getAppConfig(address)": {
        "details": "Fetch user application config.",
        "params": {
          "ua": "User application contract address."
        },
        "returns": {
          "_0": "user application config."
        }
      },
      "setAppConfig(address,address)": {
        "params": {
          "oracle": "Oracle which user application.",
          "relayer": "Relayer which user application choose."
        }
      },
      "setDefaultConfig(address,address)": {
        "details": "Set default config for all application.",
        "params": {
          "oracle": "Default oracle.",
          "relayer": "Default relayer."
        }
      }
    },
    "events": {
      "AppConfigUpdated(address,address,address)": {
        "details": "Notifies an observer that the user application config has updated.",
        "params": {
          "oracle": "Oracle which user application.",
          "relayer": "Relayer which user application choose.",
          "ua": "User application contract address."
        }
      },
      "SetDefaultConfig(address,address)": {
        "details": "Notifies an observer that the default config has set.",
        "params": {
          "oracle": "Default oracle.",
          "relayer": "Default relayer."
        }
      }
    },
    "title": "UserConfig"
  },
  "numDeployments": 1,
  "solcInputHash": "0x0000000000000000000000000000000000000000000000000000000000000000",
  "storageLayout": {
    "storage": [
      {
        "astId": 45709,
        "contract": "src/UserConfig.sol:UserConfig",
        "label": "setter",
        "offset": 0,
        "slot": "0",
        "type": "t_address"
      },
      {
        "astId": 45715,
        "contract": "src/UserConfig.sol:UserConfig",
        "label": "appConfig",
        "offset": 0,
        "slot": "1",
        "type": "t_mapping(t_address,t_struct(Config)50107_storage)"
      },
      {
        "astId": 45719,
        "contract": "src/UserConfig.sol:UserConfig",
        "label": "defaultConfig",
        "offset": 0,
        "slot": "2",
        "type": "t_struct(Config)50107_storage"
      }
    ],
    "types": {
      "t_address": {
        "encoding": "inplace",
        "label": "address",
        "numberOfBytes": "20"
      },
      "t_mapping(t_address,t_struct(Config)50107_storage)": {
        "encoding": "mapping",
        "key": "t_address",
        "label": "mapping(address => struct Config)",
        "numberOfBytes": "32",
        "value": "t_struct(Config)50107_storage"
      },
      "t_struct(Config)50107_storage": {
        "encoding": "inplace",
        "label": "struct Config",
        "numberOfBytes": "64",
        "members": [
          {
            "astId": 50104,
            "contract": "src/UserConfig.sol:UserConfig",
            "label": "relayer",
            "offset": 0,
            "slot": "0",
            "type": "t_address"
          },
          {
            "astId": 50106,
            "contract": "src/UserConfig.sol:UserConfig",
            "label": "oracle",
            "offset": 0,
            "slot": "1",
            "type": "t_address"
          }
        ]
      }
    }
  },
  "transactionHash": "0x2dd4eca7564426dc2173f6dffc82236ea755c36da341dc7bd64a7bc97530673e",
  "userdoc": {
    "version": 1,
    "kind": "user",
    "methods": {
      "changeSetter(address)": {
        "notice": "Only current setter could call."
      },
      "getAppConfig(address)": {
        "notice": "If user application has not configured, then the default config is used."
      },
      "setAppConfig(address,address)": {
        "notice": "Set user application config."
      },
      "setDefaultConfig(address,address)": {
        "notice": "Only setter could call."
      }
    },
    "notice": "User config could select their own relayer and oracle. The default configuration is used by default."
  }
}