{
  "abi": [
    {
      "inputs": [
        {
          "internalType": "address",
          "name": "endpoint",
          "type": "address"
        },
        {
          "internalType": "address",
          "name": "channel",
          "type": "address"
        }
      ],
      "stateMutability": "nonpayable",
      "type": "constructor"
    },
    {
      "anonymous": false,
      "inputs": [
        {
          "indexed": true,
          "internalType": "bytes32",
          "name": "msgHash",
          "type": "bytes32"
        },
        {
          "indexed": false,
          "internalType": "uint256",
          "name": "fee",
          "type": "uint256"
        },
        {
          "indexed": false,
          "internalType": "bytes",
          "name": "parmas",
          "type": "bytes"
        }
      ],
      "name": "Assigned",
      "type": "event"
    },
    {
      "anonymous": false,
      "inputs": [
        {
          "indexed": false,
          "internalType": "address",
          "name": "operator",
          "type": "address"
        },
        {
          "indexed": false,
          "internalType": "bool",
          "name": "approve",
          "type": "bool"
        }
      ],
      "name": "SetApproved",
      "type": "event"
    },
    {
      "anonymous": false,
      "inputs": [
        {
          "indexed": true,
          "internalType": "uint256",
          "name": "chainId",
          "type": "uint256"
        },
        {
          "indexed": false,
          "internalType": "uint64",
          "name": "baseGas",
          "type": "uint64"
        },
        {
          "indexed": false,
          "internalType": "uint64",
          "name": "gasPerByte",
          "type": "uint64"
        }
      ],
      "name": "SetDstConfig",
      "type": "event"
    },
    {
      "anonymous": false,
      "inputs": [
        {
          "indexed": true,
          "internalType": "uint256",
          "name": "chainId",
          "type": "uint256"
        },
        {
          "indexed": false,
          "internalType": "uint128",
          "name": "dstPriceRatio",
          "type": "uint128"
        },
        {
          "indexed": false,
          "internalType": "uint128",
          "name": "dstGasPriceInWei",
          "type": "uint128"
        }
      ],
      "name": "SetDstPrice",
      "type": "event"
    },
    {
      "inputs": [],
      "name": "CHANNEL",
      "outputs": [
        {
          "internalType": "address",
          "name": "",
          "type": "address"
        }
      ],
      "stateMutability": "view",
      "type": "function"
    },
    {
      "inputs": [],
      "name": "ENDPOINT",
      "outputs": [
        {
          "internalType": "address",
          "name": "",
          "type": "address"
        }
      ],
      "stateMutability": "view",
      "type": "function"
    },
    {
      "inputs": [
        {
          "internalType": "address",
          "name": "",
          "type": "address"
        }
      ],
      "name": "approvedOf",
      "outputs": [
        {
          "internalType": "bool",
          "name": "",
          "type": "bool"
        }
      ],
      "stateMutability": "view",
      "type": "function"
    },
    {
      "inputs": [
        {
          "internalType": "bytes32",
          "name": "msgHash",
          "type": "bytes32"
        },
        {
          "internalType": "bytes",
          "name": "params",
          "type": "bytes"
        }
      ],
      "name": "assign",
      "outputs": [],
      "stateMutability": "payable",
      "type": "function"
    },
    {
      "inputs": [
        {
          "internalType": "address",
          "name": "owner_",
          "type": "address"
        }
      ],
      "name": "changeOwner",
      "outputs": [],
      "stateMutability": "nonpayable",
      "type": "function"
    },
    {
      "inputs": [
        {
          "internalType": "uint256",
          "name": "",
          "type": "uint256"
        }
      ],
      "name": "configOf",
      "outputs": [
        {
          "internalType": "uint64",
          "name": "baseGas",
          "type": "uint64"
        },
        {
          "internalType": "uint64",
          "name": "gasPerByte",
          "type": "uint64"
        }
      ],
      "stateMutability": "view",
      "type": "function"
    },
    {
      "inputs": [
        {
          "internalType": "uint256",
          "name": "toChainId",
          "type": "uint256"
        },
        {
          "internalType": "address",
          "name": "",
          "type": "address"
        },
        {
          "internalType": "uint256",
          "name": "size",
          "type": "uint256"
        },
        {
          "internalType": "bytes",
          "name": "params",
          "type": "bytes"
        }
      ],
      "name": "fee",
      "outputs": [
        {
          "internalType": "uint256",
          "name": "",
          "type": "uint256"
        }
      ],
      "stateMutability": "view",
      "type": "function"
    },
    {
      "inputs": [
        {
          "internalType": "address",
          "name": "operator",
          "type": "address"
        }
      ],
      "name": "isApproved",
      "outputs": [
        {
          "internalType": "bool",
          "name": "",
          "type": "bool"
        }
      ],
      "stateMutability": "view",
      "type": "function"
    },
    {
      "inputs": [],
      "name": "owner",
      "outputs": [
        {
          "internalType": "address",
          "name": "",
          "type": "address"
        }
      ],
      "stateMutability": "view",
      "type": "function"
    },
    {
      "inputs": [
        {
          "internalType": "uint256",
          "name": "",
          "type": "uint256"
        }
      ],
      "name": "priceOf",
      "outputs": [
        {
          "internalType": "uint128",
          "name": "dstPriceRatio",
          "type": "uint128"
        },
        {
          "internalType": "uint128",
          "name": "dstGasPriceInWei",
          "type": "uint128"
        }
      ],
      "stateMutability": "view",
      "type": "function"
    },
    {
      "inputs": [
        {
          "components": [
            {
              "internalType": "address",
              "name": "channel",
              "type": "address"
            },
            {
              "internalType": "uint256",
              "name": "index",
              "type": "uint256"
            },
            {
              "internalType": "uint256",
              "name": "fromChainId",
              "type": "uint256"
            },
            {
              "internalType": "address",
              "name": "from",
              "type": "address"
            },
            {
              "internalType": "uint256",
              "name": "toChainId",
              "type": "uint256"
            },
            {
              "internalType": "address",
              "name": "to",
              "type": "address"
            },
            {
              "internalType": "bytes",
              "name": "encoded",
              "type": "bytes"
            }
          ],
          "internalType": "struct Message",
          "name": "message",
          "type": "tuple"
        },
        {
          "internalType": "bytes",
          "name": "proof",
          "type": "bytes"
        },
        {
          "internalType": "uint256",
          "name": "gasLimit",
          "type": "uint256"
        }
      ],
      "name": "relay",
      "outputs": [],
      "stateMutability": "nonpayable",
      "type": "function"
    },
    {
      "inputs": [
        {
          "internalType": "address",
          "name": "operator",
          "type": "address"
        },
        {
          "internalType": "bool",
          "name": "approve",
          "type": "bool"
        }
      ],
      "name": "setApproved",
      "outputs": [],
      "stateMutability": "nonpayable",
      "type": "function"
    },
    {
      "inputs": [
        {
          "internalType": "uint256",
          "name": "chainId",
          "type": "uint256"
        },
        {
          "internalType": "uint64",
          "name": "baseGas",
          "type": "uint64"
        },
        {
          "internalType": "uint64",
          "name": "gasPerByte",
          "type": "uint64"
        }
      ],
      "name": "setDstConfig",
      "outputs": [],
      "stateMutability": "nonpayable",
      "type": "function"
    },
    {
      "inputs": [
        {
          "internalType": "uint256",
          "name": "chainId",
          "type": "uint256"
        },
        {
          "internalType": "uint128",
          "name": "dstPriceRatio",
          "type": "uint128"
        },
        {
          "internalType": "uint128",
          "name": "dstGasPriceInWei",
          "type": "uint128"
        }
      ],
      "name": "setDstPrice",
      "outputs": [],
      "stateMutability": "nonpayable",
      "type": "function"
    },
    {
      "inputs": [
        {
          "internalType": "address",
          "name": "to",
          "type": "address"
        },
        {
          "internalType": "uint256",
          "name": "amount",
          "type": "uint256"
        }
      ],
      "name": "withdraw",
      "outputs": [],
      "stateMutability": "nonpayable",
      "type": "function"
    },
    {
      "stateMutability": "payable",
      "type": "receive"
    }
  ],
  "address": "0x8B7d10454367A324d4CbD8fd56ea64F87BD3b951",
  "args": [
    "0x2CcB8D3c4e13369d509068A8839dcE3fF1CB6E4a",
    "0x12346a7b6aA35A2FD38941485c36A7c84B2936dB"
  ],
  "bytecode": "0x60c060405234801561001057600080fd5b50604051620013b0380380620013b083398101604081905261003191610131565b6001600160a01b03808316608052811660a052600080546001600160a01b0319163390811790915561006490600161006b565b5050610164565b6000546001600160a01b031633146100b25760405162461bcd60e51b815260206004820152600660248201526510b7bbb732b960d11b604482015260640160405180910390fd5b6001600160a01b038216600081815260036020908152604091829020805460ff19168515159081179091558251938452908301527fd984ea421ae5d2a473199f85e03998a04a12f54d6f1fa183a955b3df1c0c546d910160405180910390a15050565b80516001600160a01b038116811461012c57600080fd5b919050565b6000806040838503121561014457600080fd5b61014d83610115565b915061015b60208401610115565b90509250929050565b60805160a051611218620001986000396000818161010a01526108a00152600081816101ec0152610afb01526112186000f3fe6080604052600436106100ec5760003560e01c8063a59216fa1161008a578063b9186d7d11610059578063b9186d7d1461030d578063ca1028121461038d578063edc2ee4e146103a0578063f3fef3a31461040857600080fd5b8063a59216fa1461027d578063a6f9dae11461029d578063b6333d16146102bd578063b77bd6d5146102ed57600080fd5b80636fad06f5116100c65780636fad06f5146101da57806384cfb6801461020e57806385753106146102305780638da5cb5b1461025057600080fd5b8063475163ee146100f857806353179a7c14610156578063673448dd1461018457600080fd5b366100f357005b600080fd5b34801561010457600080fd5b5061012c7f000000000000000000000000000000000000000000000000000000000000000081565b60405173ffffffffffffffffffffffffffffffffffffffff90911681526020015b60405180910390f35b34801561016257600080fd5b50610176610171366004610d70565b610428565b60405190815260200161014d565b34801561019057600080fd5b506101ca61019f366004610dd8565b73ffffffffffffffffffffffffffffffffffffffff1660009081526003602052604090205460ff1690565b604051901515815260200161014d565b3480156101e657600080fd5b5061012c7f000000000000000000000000000000000000000000000000000000000000000081565b34801561021a57600080fd5b5061022e610229366004610dfa565b6105ab565b005b34801561023c57600080fd5b5061022e61024b366004610e4e565b6106bf565b34801561025c57600080fd5b5060005461012c9073ffffffffffffffffffffffffffffffffffffffff1681565b34801561028957600080fd5b5061022e610298366004610e8a565b6107ea565b3480156102a957600080fd5b5061022e6102b8366004610dd8565b610913565b3480156102c957600080fd5b506101ca6102d8366004610dd8565b60036020526000908152604090205460ff1681565b3480156102f957600080fd5b5061022e610308366004610f22565b6109db565b34801561031957600080fd5b50610364610328366004610f55565b6001602052600090815260409020546fffffffffffffffffffffffffffffffff8082169170010000000000000000000000000000000090041682565b604080516fffffffffffffffffffffffffffffffff93841681529290911660208301520161014d565b61022e61039b366004610f6e565b610ae3565b3480156103ac57600080fd5b506103e76103bb366004610f55565b60026020526000908152604090205467ffffffffffffffff808216916801000000000000000090041682565b6040805167ffffffffffffffff93841681529290911660208301520161014d565b34801561041457600080fd5b5061022e610423366004610fba565b610bb6565b60008061043783850185610f55565b60008881526001602090815260408083208151808301835290546fffffffffffffffffffffffffffffffff808216835270010000000000000000000000000000000090910416818401528b84526002835281842082518084019093525467ffffffffffffffff80821680855268010000000000000000909204169383019390935293945091906104c8908590611013565b83602001516fffffffffffffffffffffffffffffffff166104e9919061102c565b905060006402540be40084600001516fffffffffffffffffffffffffffffffff1683610515919061102c565b61051f9190611043565b905060006402540be40085600001516fffffffffffffffffffffffffffffffff1686602001516fffffffffffffffffffffffffffffffff168c876020015167ffffffffffffffff16610571919061102c565b61057b919061102c565b610585919061102c565b61058f9190611043565b905061059b8183611013565b9c9b505050505050505050505050565b60005473ffffffffffffffffffffffffffffffffffffffff163314610631576040517f08c379a000000000000000000000000000000000000000000000000000000000815260206004820152600660248201527f216f776e6572000000000000000000000000000000000000000000000000000060448201526064015b60405180910390fd5b73ffffffffffffffffffffffffffffffffffffffff821660008181526003602090815260409182902080547fffffffffffffffffffffffffffffffffffffffffffffffffffffffffffffff00168515159081179091558251938452908301527fd984ea421ae5d2a473199f85e03998a04a12f54d6f1fa183a955b3df1c0c546d910160405180910390a15050565b3360009081526003602052604090205460ff16610738576040517f08c379a000000000000000000000000000000000000000000000000000000000815260206004820152600860248201527f21617070726f76650000000000000000000000000000000000000000000000006044820152606401610628565b60408051808201825267ffffffffffffffff848116808352848216602080850182815260008a815260028352879020955186549151861668010000000000000000027fffffffffffffffffffffffffffffffff000000000000000000000000000000009092169516949094179390931790935583519081529081019190915284917f22f5a8bc0090523dde00cddddb6a70e17d4f457f4b823137143657c8844d8eac91015b60405180910390a2505050565b3360009081526003602052604090205460ff16610863576040517f08c379a000000000000000000000000000000000000000000000000000000000815260206004820152600860248201527f21617070726f76650000000000000000000000000000000000000000000000006044820152606401610628565b6040517f9622d8d100000000000000000000000000000000000000000000000000000000815273ffffffffffffffffffffffffffffffffffffffff7f00000000000000000000000000000000000000000000000000000000000000001690639622d8d1906108db90879087908790879060040161112b565b600060405180830381600087803b1580156108f557600080fd5b505af1158015610909573d6000803e3d6000fd5b5050505050505050565b60005473ffffffffffffffffffffffffffffffffffffffff163314610994576040517f08c379a000000000000000000000000000000000000000000000000000000000815260206004820152600660248201527f216f776e657200000000000000000000000000000000000000000000000000006044820152606401610628565b600080547fffffffffffffffffffffffff00000000000000000000000000000000000000001673ffffffffffffffffffffffffffffffffffffffff92909216919091179055565b3360009081526003602052604090205460ff16610a54576040517f08c379a000000000000000000000000000000000000000000000000000000000815260206004820152600860248201527f21617070726f76650000000000000000000000000000000000000000000000006044820152606401610628565b6040805180820182526fffffffffffffffffffffffffffffffff848116808352848216602080850182815260008a8152600183528790209551905185167001000000000000000000000000000000000294169390931790935583519081529081019190915284917f1ec2caaeffa2fe858d7b732753d0bfd5a9cda5f73f3527136bca5a11c2f1d4b391016107dd565b3373ffffffffffffffffffffffffffffffffffffffff7f00000000000000000000000000000000000000000000000000000000000000001614610b82576040517f08c379a000000000000000000000000000000000000000000000000000000000815260206004820152600860248201527f21656e706f696e740000000000000000000000000000000000000000000000006044820152606401610628565b827fe4c88f664d1b19f8c7aa0952c93b981b37e6307bb1c6ead91fc53ce727a14d723484846040516107dd939291906111e8565b3360009081526003602052604090205460ff16610c2f576040517f08c379a000000000000000000000000000000000000000000000000000000000815260206004820152600860248201527f21617070726f76650000000000000000000000000000000000000000000000006044820152606401610628565b60008273ffffffffffffffffffffffffffffffffffffffff168260405160006040518083038185875af1925050503d8060008114610c89576040519150601f19603f3d011682016040523d82523d6000602084013e610c8e565b606091505b5050905080610cf9576040517f08c379a000000000000000000000000000000000000000000000000000000000815260206004820152600960248201527f21776974686472617700000000000000000000000000000000000000000000006044820152606401610628565b505050565b803573ffffffffffffffffffffffffffffffffffffffff81168114610d2257600080fd5b919050565b60008083601f840112610d3957600080fd5b50813567ffffffffffffffff811115610d5157600080fd5b602083019150836020828501011115610d6957600080fd5b9250929050565b600080600080600060808688031215610d8857600080fd5b85359450610d9860208701610cfe565b935060408601359250606086013567ffffffffffffffff811115610dbb57600080fd5b610dc788828901610d27565b969995985093965092949392505050565b600060208284031215610dea57600080fd5b610df382610cfe565b9392505050565b60008060408385031215610e0d57600080fd5b610e1683610cfe565b915060208301358015158114610e2b57600080fd5b809150509250929050565b803567ffffffffffffffff81168114610d2257600080fd5b600080600060608486031215610e6357600080fd5b83359250610e7360208501610e36565b9150610e8160408501610e36565b90509250925092565b60008060008060608587031215610ea057600080fd5b843567ffffffffffffffff80821115610eb857600080fd5b9086019060e08289031215610ecc57600080fd5b90945060208601359080821115610ee257600080fd5b50610eef87828801610d27565b9598909750949560400135949350505050565b80356fffffffffffffffffffffffffffffffff81168114610d2257600080fd5b600080600060608486031215610f3757600080fd5b83359250610f4760208501610f02565b9150610e8160408501610f02565b600060208284031215610f6757600080fd5b5035919050565b600080600060408486031215610f8357600080fd5b83359250602084013567ffffffffffffffff811115610fa157600080fd5b610fad86828701610d27565b9497909650939450505050565b60008060408385031215610fcd57600080fd5b610fd683610cfe565b946020939093013593505050565b7f4e487b7100000000000000000000000000000000000000000000000000000000600052601160045260246000fd5b8082018082111561102657611026610fe4565b92915050565b808202811582820484141761102657611026610fe4565b600082611079577f4e487b7100000000000000000000000000000000000000000000000000000000600052601260045260246000fd5b500490565b60008083357fffffffffffffffffffffffffffffffffffffffffffffffffffffffffffffffe18436030181126110b357600080fd5b830160208101925035905067ffffffffffffffff8111156110d357600080fd5b803603821315610d6957600080fd5b8183528181602085013750600060208284010152600060207fffffffffffffffffffffffffffffffffffffffffffffffffffffffffffffffe0601f840116840101905092915050565b60608152600073ffffffffffffffffffffffffffffffffffffffff8061115088610cfe565b16606084015260208701356080840152604087013560a08401528061117760608901610cfe565b1660c0840152608087013560e08401528061119460a08901610cfe565b16610100840152506111a960c087018761107e565b60e06101208501526111c0610140850182846110e2565b91505082810360208401526111d68186886110e2565b91505082604083015295945050505050565b8381526040602082015260006112026040830184866110e2565b9594505050505056fea164736f6c6343000811000a",
  "devdoc": {
    "version": 1,
    "kind": "dev"
  },
  "numDeployments": 1,
  "solcInputHash": "0x0000000000000000000000000000000000000000000000000000000000000000",
  "storageLayout": {
    "storage": [
      {
        "astId": 48055,
        "contract": "src/eco/Relayer.sol:Relayer",
        "label": "owner",
        "offset": 0,
        "slot": "0",
        "type": "t_address"
      },
      {
        "astId": 48060,
        "contract": "src/eco/Relayer.sol:Relayer",
        "label": "priceOf",
        "offset": 0,
        "slot": "1",
        "type": "t_mapping(t_uint256,t_struct(DstPrice)48044_storage)"
      },
      {
        "astId": 48065,
        "contract": "src/eco/Relayer.sol:Relayer",
        "label": "configOf",
        "offset": 0,
        "slot": "2",
        "type": "t_mapping(t_uint256,t_struct(DstConfig)48049_storage)"
      },
      {
        "astId": 48069,
        "contract": "src/eco/Relayer.sol:Relayer",
        "label": "approvedOf",
        "offset": 0,
        "slot": "3",
        "type": "t_mapping(t_address,t_bool)"
      }
    ],
    "types": {
      "t_address": {
        "encoding": "inplace",
        "label": "address",
        "numberOfBytes": "20"
      },
      "t_bool": {
        "encoding": "inplace",
        "label": "bool",
        "numberOfBytes": "1"
      },
      "t_mapping(t_address,t_bool)": {
        "encoding": "mapping",
        "key": "t_address",
        "label": "mapping(address => bool)",
        "numberOfBytes": "32",
        "value": "t_bool"
      },
      "t_mapping(t_uint256,t_struct(DstConfig)48049_storage)": {
        "encoding": "mapping",
        "key": "t_uint256",
        "label": "mapping(uint256 => struct Relayer.DstConfig)",
        "numberOfBytes": "32",
        "value": "t_struct(DstConfig)48049_storage"
      },
      "t_mapping(t_uint256,t_struct(DstPrice)48044_storage)": {
        "encoding": "mapping",
        "key": "t_uint256",
        "label": "mapping(uint256 => struct Relayer.DstPrice)",
        "numberOfBytes": "32",
        "value": "t_struct(DstPrice)48044_storage"
      },
      "t_struct(DstConfig)48049_storage": {
        "encoding": "inplace",
        "label": "struct Relayer.DstConfig",
        "numberOfBytes": "32",
        "members": [
          {
            "astId": 48046,
            "contract": "src/eco/Relayer.sol:Relayer",
            "label": "baseGas",
            "offset": 0,
            "slot": "0",
            "type": "t_uint64"
          },
          {
            "astId": 48048,
            "contract": "src/eco/Relayer.sol:Relayer",
            "label": "gasPerByte",
            "offset": 8,
            "slot": "0",
            "type": "t_uint64"
          }
        ]
      },
      "t_struct(DstPrice)48044_storage": {
        "encoding": "inplace",
        "label": "struct Relayer.DstPrice",
        "numberOfBytes": "32",
        "members": [
          {
            "astId": 48041,
            "contract": "src/eco/Relayer.sol:Relayer",
            "label": "dstPriceRatio",
            "offset": 0,
            "slot": "0",
            "type": "t_uint128"
          },
          {
            "astId": 48043,
            "contract": "src/eco/Relayer.sol:Relayer",
            "label": "dstGasPriceInWei",
            "offset": 16,
            "slot": "0",
            "type": "t_uint128"
          }
        ]
      },
      "t_uint128": {
        "encoding": "inplace",
        "label": "uint128",
        "numberOfBytes": "16"
      },
      "t_uint256": {
        "encoding": "inplace",
        "label": "uint256",
        "numberOfBytes": "32"
      },
      "t_uint64": {
        "encoding": "inplace",
        "label": "uint64",
        "numberOfBytes": "8"
      }
    }
  },
  "transactionHash": "0x917baf2e7f79a70261fd3d006278ee6a32d031f408a31ea2450ace4acaf052c2",
  "userdoc": {
    "version": 1,
    "kind": "user"
  }
}